{
  "_format": "hh-sol-artifact-1",
  "contractName": "Payment",
  "sourceName": "contracts/Payment.sol",
  "abi": [
    {
      "inputs": [
        {
          "internalType": "address payable[2]",
          "name": "addr",
          "type": "address[2]"
        }
      ],
      "name": "split",
      "outputs": [],
      "stateMutability": "payable",
      "type": "function"
    }
  ],
  "bytecode": "0x608060405234801561001057600080fd5b50610472806100206000396000f3fe60806040526004361061001e5760003560e01c8063e1c8dbb414610023575b600080fd5b61003d6004803603810190610038919061021b565b61003f565b005b80600060028110610079577f4e487b7100000000000000000000000000000000000000000000000000000000600052603260045260246000fd5b602002015173ffffffffffffffffffffffffffffffffffffffff166108fc60646001346100a691906102c0565b6100b0919061028f565b9081150290604051600060405180830381858888f193505050501580156100db573d6000803e3d6000fd5b5080600160028110610116577f4e487b7100000000000000000000000000000000000000000000000000000000600052603260045260246000fd5b602002015173ffffffffffffffffffffffffffffffffffffffff166108fc606460633461014391906102c0565b61014d919061028f565b9081150290604051600060405180830381858888f19350505050158015610178573d6000803e3d6000fd5b5050565b600061018f61018a84610269565b610244565b905080828560208602820111156101a557600080fd5b60005b858110156101d557816101bb88826101df565b8452602084019350602083019250506001810190506101a8565b5050509392505050565b6000813590506101ee81610425565b92915050565b600082601f83011261020557600080fd5b600261021284828561017c565b91505092915050565b60006040828403121561022d57600080fd5b600061023b848285016101f4565b91505092915050565b600061024e61025f565b905061025a8282610356565b919050565b6000604051905090565b600067ffffffffffffffff821115610284576102836103e5565b5b602082029050919050565b600061029a8261034c565b91506102a58361034c565b9250826102b5576102b46103b6565b5b828204905092915050565b60006102cb8261034c565b91506102d68361034c565b9250817fffffffffffffffffffffffffffffffffffffffffffffffffffffffffffffffff048311821515161561030f5761030e610387565b5b828202905092915050565b60006103258261032c565b9050919050565b600073ffffffffffffffffffffffffffffffffffffffff82169050919050565b6000819050919050565b61035f82610414565b810181811067ffffffffffffffff8211171561037e5761037d6103e5565b5b80604052505050565b7f4e487b7100000000000000000000000000000000000000000000000000000000600052601160045260246000fd5b7f4e487b7100000000000000000000000000000000000000000000000000000000600052601260045260246000fd5b7f4e487b7100000000000000000000000000000000000000000000000000000000600052604160045260246000fd5b6000601f19601f8301169050919050565b61042e8161031a565b811461043957600080fd5b5056fea264697066735822122003a0101c63af117d82e173ad1535b3bdb65fe7e6676acf6c9fd65d1279f0e10364736f6c63430008020033",
  "linkReferences": {},
  "deployedLinkReferences": {}
}